{
  "contractName": "Databridge",
  "abi": [
    {
      "constant": true,
      "inputs": [
        {
          "name": "",
          "type": "uint256"
        }
      ],
      "name": "datasets",
      "outputs": [
        {
          "name": "owner",
          "type": "address"
        },
        {
          "name": "id",
          "type": "uint256"
        },
        {
          "name": "name",
          "type": "string"
        },
        {
          "name": "description",
          "type": "string"
        },
        {
          "name": "valid",
          "type": "bool"
        },
        {
          "name": "location",
          "type": "string"
        }
      ],
      "payable": false,
      "stateMutability": "view",
      "type": "function"
    },
    {
      "constant": true,
      "inputs": [],
      "name": "owner",
      "outputs": [
        {
          "name": "",
          "type": "address"
        }
      ],
      "payable": false,
      "stateMutability": "view",
      "type": "function"
    },
    {
      "constant": true,
      "inputs": [],
      "name": "currentBalance",
      "outputs": [
        {
          "name": "",
          "type": "uint256"
        }
      ],
      "payable": false,
      "stateMutability": "view",
      "type": "function"
    },
    {
      "constant": true,
      "inputs": [],
      "name": "numberValidDatasets",
      "outputs": [
        {
          "name": "",
          "type": "uint256"
        }
      ],
      "payable": false,
      "stateMutability": "view",
      "type": "function"
    },
    {
      "inputs": [
        {
          "name": "_investment",
          "type": "uint256"
        }
      ],
      "payable": false,
      "stateMutability": "nonpayable",
      "type": "constructor"
    },
    {
      "payable": true,
      "stateMutability": "payable",
      "type": "fallback"
    },
    {
      "constant": false,
      "inputs": [],
      "name": "kill",
      "outputs": [],
      "payable": false,
      "stateMutability": "nonpayable",
      "type": "function"
    },
    {
      "constant": true,
      "inputs": [
        {
          "name": "_id",
          "type": "uint256"
        }
      ],
      "name": "uniqueId",
      "outputs": [
        {
          "name": "",
          "type": "bool"
        }
      ],
      "payable": false,
      "stateMutability": "view",
      "type": "function"
    },
    {
      "constant": true,
      "inputs": [
        {
          "name": "_name",
          "type": "string"
        }
      ],
      "name": "uniqueName",
      "outputs": [
        {
          "name": "",
          "type": "bool"
        }
      ],
      "payable": false,
      "stateMutability": "view",
      "type": "function"
    },
    {
      "constant": true,
      "inputs": [
        {
          "name": "_id",
          "type": "uint256"
        },
        {
          "name": "_name",
          "type": "string"
        }
      ],
      "name": "getDatasetOwner",
      "outputs": [
        {
          "name": "",
          "type": "uint256"
        }
      ],
      "payable": false,
      "stateMutability": "view",
      "type": "function"
    },
    {
      "constant": true,
      "inputs": [
        {
          "name": "_id",
          "type": "uint256"
        },
        {
          "name": "_name",
          "type": "string"
        }
      ],
      "name": "checkDatasetExists",
      "outputs": [
        {
          "name": "",
          "type": "bool"
        }
      ],
      "payable": false,
      "stateMutability": "view",
      "type": "function"
    },
    {
      "constant": false,
      "inputs": [
        {
          "name": "_id",
          "type": "uint256"
        },
        {
          "name": "_name",
          "type": "string"
        },
        {
          "name": "_description",
          "type": "string"
        }
      ],
      "name": "uploadDataset",
      "outputs": [],
      "payable": true,
      "stateMutability": "payable",
      "type": "function"
    },
    {
      "constant": false,
      "inputs": [
        {
          "name": "_id",
          "type": "uint256"
        },
        {
          "name": "_name",
          "type": "string"
        }
      ],
      "name": "validateDataset",
      "outputs": [],
      "payable": true,
      "stateMutability": "payable",
      "type": "function"
    },
    {
      "constant": false,
      "inputs": [],
      "name": "donate",
      "outputs": [],
      "payable": true,
      "stateMutability": "payable",
      "type": "function"
    }
  ],
  "bytecode": "0x6060604052341561000f57600080fd5b6040516020806111f883398101604052808051906020019091905050336000806101000a81548173ffffffffffffffffffffffffffffffffffffffff021916908373ffffffffffffffffffffffffffffffffffffffff1602179055508060028190555060006003819055505061116e8061008a6000396000f3006060604052600436106100ba576000357c0100000000000000000000000000000000000000000000000000000000900463ffffffff16806301908a74146100bc5780631cff85e114610131578063287e6e991461034157806341c0e1b51461039c5780635552b669146103b1578063839e44a11461042f5780638da5cb5b146104cd5780639c82f8be14610522578063b5443b0d1461055d578063ce845d1d146105d7578063e19bd5df14610600578063ed88c68e14610629575b005b34156100c757600080fd5b610117600480803590602001908201803590602001908080601f01602080910402602001604051908101604052809392919081815260200183838082843782019150505050505091905050610633565b604051808215151515815260200191505060405180910390f35b341561013c57600080fd5b6101526004808035906020019091905050610762565b604051808773ffffffffffffffffffffffffffffffffffffffff1673ffffffffffffffffffffffffffffffffffffffff168152602001868152602001806020018060200185151515158152602001806020018481038452888181546001816001161561010002031660029004815260200191508054600181600116156101000203166002900480156102255780601f106101fa57610100808354040283529160200191610225565b820191906000526020600020905b81548152906001019060200180831161020857829003601f168201915b50508481038352878181546001816001161561010002031660029004815260200191508054600181600116156101000203166002900480156102a85780601f1061027d576101008083540402835291602001916102a8565b820191906000526020600020905b81548152906001019060200180831161028b57829003601f168201915b505084810382528581815460018160011615610100020316600290048152602001915080546001816001161561010002031660029004801561032b5780601f106103005761010080835404028352916020019161032b565b820191906000526020600020905b81548152906001019060200180831161030e57829003601f168201915b5050995050505050505050505060405180910390f35b61039a600480803590602001909190803590602001908201803590602001908080601f016020809104026020016040519081016040528093929190818152602001838380828437820191505050505050919050506107d7565b005b34156103a757600080fd5b6103af61097c565b005b34156103bc57600080fd5b610415600480803590602001909190803590602001908201803590602001908080601f01602080910402602001604051908101604052809392919081815260200183838082843782019150505050505091905050610a0d565b604051808215151515815260200191505060405180910390f35b6104cb600480803590602001909190803590602001908201803590602001908080601f0160208091040260200160405190810160405280939291908181526020018383808284378201915050505050509190803590602001908201803590602001908080601f01602080910402602001604051908101604052809392919081815260200183838082843782019150505050505091905050610b68565b005b34156104d857600080fd5b6104e0610d21565b604051808273ffffffffffffffffffffffffffffffffffffffff1673ffffffffffffffffffffffffffffffffffffffff16815260200191505060405180910390f35b341561052d57600080fd5b6105436004808035906020019091905050610d46565b604051808215151515815260200191505060405180910390f35b341561056857600080fd5b6105c1600480803590602001909190803590602001908201803590602001908080601f01602080910402602001604051908101604052809392919081815260200183838082843782019150505050505091905050610da4565b6040518082815260200191505060405180910390f35b34156105e257600080fd5b6105ea610efe565b6040518082815260200191505060405180910390f35b341561060b57600080fd5b610613610f04565b6040518082815260200191505060405180910390f35b610631610f0a565b005b600080600090505b60018054905081101561075757826040518082805190602001908083835b60208310151561067e5780518252602082019150602081019050602083039250610659565b6001836020036101000a0380198251168184511680821785525050505050509050019150506040518091039020600019166001828154811015156106be57fe5b9060005260206000209060060201600201604051808280546001816001161561010002031660029004801561072a5780601f1061070857610100808354040283529182019161072a565b820191906000526020600020905b815481529060010190602001808311610716575b5050915050604051809103902060001916141561074a576000915061075c565b808060010191505061063b565b600191505b50919050565b60018181548110151561077157fe5b90600052602060002090600602016000915090508060000160009054906101000a900473ffffffffffffffffffffffffffffffffffffffff1690806001015490806002019080600301908060040160009054906101000a900460ff169080600501905086565b6000806107e48484610a0d565b15156107ef57600080fd5b6107f98484610da4565b91506000809054906101000a900473ffffffffffffffffffffffffffffffffffffffff1673ffffffffffffffffffffffffffffffffffffffff163373ffffffffffffffffffffffffffffffffffffffff16148015610882575060018281548110151561086157fe5b906000526020600020906006020160040160009054906101000a900460ff16155b15610976573460026000828254019250508190555060016003600082825401925050819055506001600354016002548115156108ba57fe5b0490506001828154811015156108cc57fe5b906000526020600020906006020160000160009054906101000a900473ffffffffffffffffffffffffffffffffffffffff1673ffffffffffffffffffffffffffffffffffffffff166108fc829081150290604051600060405180830381858888f19350505050151561093d57600080fd5b6001808381548110151561094d57fe5b906000526020600020906006020160040160006101000a81548160ff0219169083151502179055505b50505050565b6000809054906101000a900473ffffffffffffffffffffffffffffffffffffffff1673ffffffffffffffffffffffffffffffffffffffff163373ffffffffffffffffffffffffffffffffffffffff161415610a0b576000809054906101000a900473ffffffffffffffffffffffffffffffffffffffff1673ffffffffffffffffffffffffffffffffffffffff16ff5b565b600080600090505b600180549050811015610b5c5783600182815481101515610a3257fe5b906000526020600020906006020160010154148015610b415750826040518082805190602001908083835b602083101515610a825780518252602082019150602081019050602083039250610a5d565b6001836020036101000a038019825116818451168082178552505050505050905001915050604051809103902060001916600182815481101515610ac257fe5b90600052602060002090600602016002016040518082805460018160011615610100020316600290048015610b2e5780601f10610b0c576101008083540402835291820191610b2e565b820191906000526020600020905b815481529060010190602001808311610b1a575b5050915050604051809103902060001916145b15610b4f5760019150610b61565b8080600101915050610a15565b600091505b5092915050565b610b70610f1c565b610b7984610d46565b1515610b8457600080fd5b610b8d83610633565b1515610b9857600080fd5b33816000019073ffffffffffffffffffffffffffffffffffffffff16908173ffffffffffffffffffffffffffffffffffffffff168152505083816020018181525050828160400181905250818160600181905250600081608001901515908115158152505060206040519081016040528060008152508160a001819052503460026000828254019250508190555060018054806001018281610c3a9190610f7d565b9160005260206000209060060201600083909190915060008201518160000160006101000a81548173ffffffffffffffffffffffffffffffffffffffff021916908373ffffffffffffffffffffffffffffffffffffffff160217905550602082015181600101556040820151816002019080519060200190610cbd929190610faf565b506060820151816003019080519060200190610cda929190610faf565b5060808201518160040160006101000a81548160ff02191690831515021790555060a0820151816005019080519060200190610d17929190610faf565b5050505050505050565b6000809054906101000a900473ffffffffffffffffffffffffffffffffffffffff1681565b600080600090505b600180549050811015610d995782600182815481101515610d6b57fe5b9060005260206000209060060201600101541415610d8c5760009150610d9e565b8080600101915050610d4e565b600191505b50919050565b600080600090505b600180549050811015610ef25783600182815481101515610dc957fe5b906000526020600020906006020160010154148015610ed85750826040518082805190602001908083835b602083101515610e195780518252602082019150602081019050602083039250610df4565b6001836020036101000a038019825116818451168082178552505050505050905001915050604051809103902060001916600182815481101515610e5957fe5b90600052602060002090600602016002016040518082805460018160011615610100020316600290048015610ec55780601f10610ea3576101008083540402835291820191610ec5565b820191906000526020600020905b815481529060010190602001808311610eb1575b5050915050604051809103902060001916145b15610ee557809150610ef7565b8080600101915050610dac565b600091505b5092915050565b60025481565b60035481565b34600260008282540192505081905550565b60c060405190810160405280600073ffffffffffffffffffffffffffffffffffffffff16815260200160008152602001610f5461102f565b8152602001610f6161102f565b8152602001600015158152602001610f7761102f565b81525090565b815481835581811511610faa57600602816006028360005260206000209182019101610fa99190611043565b5b505050565b828054600181600116156101000203166002900490600052602060002090601f016020900481019282601f10610ff057805160ff191683800117855561101e565b8280016001018555821561101e579182015b8281111561101d578251825591602001919060010190611002565b5b50905061102b91906110d5565b5090565b602060405190810160405280600081525090565b6110d291905b808211156110ce57600080820160006101000a81549073ffffffffffffffffffffffffffffffffffffffff0219169055600182016000905560028201600061109191906110fa565b6003820160006110a191906110fa565b6004820160006101000a81549060ff02191690556005820160006110c591906110fa565b50600601611049565b5090565b90565b6110f791905b808211156110f35760008160009055506001016110db565b5090565b90565b50805460018160011615610100020316600290046000825580601f10611120575061113f565b601f01602090049060005260206000209081019061113e91906110d5565b5b505600a165627a7a723058209480f03ca65ad9dddf5e3ee0c82fb17d3df8af4e24b05208f35cde71cfbd9a7b0029",
  "source": "pragma solidity ^0.4.17;\n\ncontract Databridge {\n    address public owner;\n    Dataset[] public datasets;\n    uint256 public currentBalance;\n    uint256 public numberValidDatasets;\n\n    struct Dataset {\n        address owner;\n        uint256 id;\n        string name;\n        string description;\n        bool valid;\n        string location;\n    }\n\n    function() public payable {}\n\n    function Databridge(uint256 _investment) public {\n        owner = msg.sender;\n        currentBalance = _investment;\n        numberValidDatasets = 0;\n    }\n\n    function kill() public {\n        if (msg.sender == owner) \n            selfdestruct(owner);\n    }\n\n    function uniqueId(uint256 _id) public constant returns(bool) {\n        for (uint256 i = 0; i < datasets.length; i++) {\n            if (datasets[i].id == _id)\n                return false;\n        }\n        return true;\n    }\n\n    function uniqueName(string _name) public constant returns(bool) {\n        for (uint256 i = 0; i < datasets.length; i++) {\n            if (keccak256(datasets[i].name) == keccak256(_name))\n                return false;\n        }\n        return true;\n    }\n\n    function getDatasetOwner(uint256 _id, string _name) public constant returns(uint256) {\n        for (uint256 i = 0; i < datasets.length; i++) {\n            if (datasets[i].id == _id && keccak256(datasets[i].name) == keccak256(_name)) {\n                return i;\n            }\n        }\n        return 0;\n    }\n\n    function checkDatasetExists(uint256 _id, string _name) public constant returns(bool) {\n        for (uint256 i = 0; i < datasets.length; i++) {\n            if (datasets[i].id == _id && keccak256(datasets[i].name) == keccak256(_name)) {\n                return true;\n            }\n        }\n        return false;\n    }\n\n    function uploadDataset(uint256 _id, string _name, string _description) public payable {\n        require(uniqueId(_id));\n        require(uniqueName(_name));\n\n        Dataset memory uploadSet;\n        \n        uploadSet.owner = msg.sender;\n        uploadSet.id = _id;\n        uploadSet.name = _name;\n        uploadSet.description = _description;\n        uploadSet.valid = false;\n        uploadSet.location = \"\";\n\n        currentBalance += msg.value;\n        datasets.push(uploadSet);\n    }\n\n    function validateDataset(uint256 _id, string _name) public payable {\n        require(checkDatasetExists(_id, _name));\n        uint256 datasetIndex = getDatasetOwner(_id, _name);\n        \n        if (msg.sender == owner && !datasets[datasetIndex].valid) {\n            currentBalance += msg.value;\n            numberValidDatasets += 1;\n            uint256 etherAmount = currentBalance/(numberValidDatasets + 1);\n            datasets[datasetIndex].owner.transfer(etherAmount);\n            datasets[datasetIndex].valid = true;\n        }\n    }\n\n    function donate() public payable {\n        currentBalance += msg.value;\n    }\n}",
  "sourcePath": "/home/sai/code/databridge/contracts/Databridge.sol",
  "compiler": {
    "name": "solc",
    "version": "0.4.19+commit.c4cbbb05.Emscripten.clang"
  },
  "schemaVersion": "2.0.0",
  "updatedAt": "2018-03-07T11:11:29.817Z"
}